{
  "contractName": "Vahan",
  "abi": [
    {
      "inputs": [],
      "stateMutability": "nonpayable",
      "type": "constructor"
    },
    {
      "anonymous": false,
      "inputs": [
        {
          "indexed": false,
          "internalType": "string",
          "name": "_message",
          "type": "string"
        }
      ],
      "name": "DeVahan_deployed",
      "type": "event"
    },
    {
      "anonymous": false,
      "inputs": [
        {
          "indexed": false,
          "internalType": "uint256",
          "name": "_productId",
          "type": "uint256"
        },
        {
          "indexed": false,
          "internalType": "address",
          "name": "_manufacturerAddress",
          "type": "address"
        },
        {
          "indexed": false,
          "internalType": "uint256",
          "name": "_time",
          "type": "uint256"
        }
      ],
      "name": "Product_Added",
      "type": "event"
    },
    {
      "anonymous": false,
      "inputs": [
        {
          "indexed": false,
          "internalType": "uint256",
          "name": "_productId",
          "type": "uint256"
        },
        {
          "indexed": false,
          "internalType": "address",
          "name": "_manufacturerAddress",
          "type": "address"
        },
        {
          "indexed": false,
          "internalType": "address",
          "name": "_retailerAddress",
          "type": "address"
        },
        {
          "indexed": false,
          "internalType": "uint256",
          "name": "_time",
          "type": "uint256"
        }
      ],
      "name": "Product_Released",
      "type": "event"
    },
    {
      "anonymous": false,
      "inputs": [
        {
          "indexed": false,
          "internalType": "uint256",
          "name": "_productId",
          "type": "uint256"
        },
        {
          "indexed": false,
          "internalType": "address",
          "name": "_retailerAddress",
          "type": "address"
        },
        {
          "indexed": false,
          "internalType": "address",
          "name": "_customerAddress",
          "type": "address"
        },
        {
          "indexed": false,
          "internalType": "uint256",
          "name": "_time",
          "type": "uint256"
        }
      ],
      "name": "Product_Sold",
      "type": "event"
    },
    {
      "inputs": [
        {
          "internalType": "uint256",
          "name": "",
          "type": "uint256"
        },
        {
          "internalType": "uint256",
          "name": "",
          "type": "uint256"
        }
      ],
      "name": "Product_Retailers",
      "outputs": [
        {
          "internalType": "address",
          "name": "",
          "type": "address"
        }
      ],
      "stateMutability": "view",
      "type": "function",
      "constant": true
    },
    {
      "inputs": [
        {
          "internalType": "address",
          "name": "",
          "type": "address"
        },
        {
          "internalType": "uint256",
          "name": "",
          "type": "uint256"
        }
      ],
      "name": "customer_orders",
      "outputs": [
        {
          "internalType": "uint256",
          "name": "",
          "type": "uint256"
        }
      ],
      "stateMutability": "view",
      "type": "function",
      "constant": true
    },
    {
      "inputs": [
        {
          "internalType": "address",
          "name": "",
          "type": "address"
        }
      ],
      "name": "customers",
      "outputs": [
        {
          "internalType": "address",
          "name": "id",
          "type": "address"
        },
        {
          "internalType": "string",
          "name": "name",
          "type": "string"
        },
        {
          "internalType": "uint256",
          "name": "total_orders",
          "type": "uint256"
        }
      ],
      "stateMutability": "view",
      "type": "function",
      "constant": true
    },
    {
      "inputs": [
        {
          "internalType": "address",
          "name": "",
          "type": "address"
        },
        {
          "internalType": "uint256",
          "name": "",
          "type": "uint256"
        }
      ],
      "name": "manufacturer_inventory",
      "outputs": [
        {
          "internalType": "uint256",
          "name": "",
          "type": "uint256"
        }
      ],
      "stateMutability": "view",
      "type": "function",
      "constant": true
    },
    {
      "inputs": [
        {
          "internalType": "address",
          "name": "",
          "type": "address"
        }
      ],
      "name": "manufacturers",
      "outputs": [
        {
          "internalType": "address",
          "name": "id",
          "type": "address"
        },
        {
          "internalType": "string",
          "name": "name",
          "type": "string"
        },
        {
          "internalType": "uint256",
          "name": "total_products",
          "type": "uint256"
        }
      ],
      "stateMutability": "view",
      "type": "function",
      "constant": true
    },
    {
      "inputs": [
        {
          "internalType": "uint256",
          "name": "",
          "type": "uint256"
        }
      ],
      "name": "products",
      "outputs": [
        {
          "internalType": "uint256",
          "name": "id",
          "type": "uint256"
        },
        {
          "internalType": "string",
          "name": "name",
          "type": "string"
        },
        {
          "internalType": "uint256",
          "name": "price",
          "type": "uint256"
        },
        {
          "internalType": "string",
          "name": "ipfs_hash",
          "type": "string"
        },
        {
          "internalType": "enum Vahan.Stage",
          "name": "stage",
          "type": "uint8"
        },
        {
          "internalType": "address",
          "name": "manufacturer",
          "type": "address"
        },
        {
          "internalType": "uint256",
          "name": "total_retailers",
          "type": "uint256"
        },
        {
          "internalType": "address",
          "name": "customer",
          "type": "address"
        },
        {
          "internalType": "address",
          "name": "currentOwner",
          "type": "address"
        }
      ],
      "stateMutability": "view",
      "type": "function",
      "constant": true
    },
    {
      "inputs": [
        {
          "internalType": "address",
          "name": "",
          "type": "address"
        },
        {
          "internalType": "uint256",
          "name": "",
          "type": "uint256"
        }
      ],
      "name": "retailer_inventory",
      "outputs": [
        {
          "internalType": "uint256",
          "name": "",
          "type": "uint256"
        }
      ],
      "stateMutability": "view",
      "type": "function",
      "constant": true
    },
    {
      "inputs": [
        {
          "internalType": "address",
          "name": "",
          "type": "address"
        }
      ],
      "name": "retailers",
      "outputs": [
        {
          "internalType": "address",
          "name": "id",
          "type": "address"
        },
        {
          "internalType": "string",
          "name": "name",
          "type": "string"
        },
        {
          "internalType": "uint256",
          "name": "total_products",
          "type": "uint256"
        }
      ],
      "stateMutability": "view",
      "type": "function",
      "constant": true
    },
    {
      "inputs": [],
      "name": "total_products",
      "outputs": [
        {
          "internalType": "uint256",
          "name": "",
          "type": "uint256"
        }
      ],
      "stateMutability": "view",
      "type": "function",
      "constant": true
    },
    {
      "inputs": [],
      "name": "getProducts",
      "outputs": [
        {
          "components": [
            {
              "internalType": "uint256",
              "name": "id",
              "type": "uint256"
            },
            {
              "internalType": "string",
              "name": "name",
              "type": "string"
            },
            {
              "internalType": "uint256",
              "name": "price",
              "type": "uint256"
            },
            {
              "internalType": "string",
              "name": "ipfs_hash",
              "type": "string"
            },
            {
              "internalType": "enum Vahan.Stage",
              "name": "stage",
              "type": "uint8"
            },
            {
              "internalType": "address",
              "name": "manufacturer",
              "type": "address"
            },
            {
              "internalType": "uint256",
              "name": "total_retailers",
              "type": "uint256"
            },
            {
              "internalType": "address",
              "name": "customer",
              "type": "address"
            },
            {
              "internalType": "address",
              "name": "currentOwner",
              "type": "address"
            }
          ],
          "internalType": "struct Vahan.Product[]",
          "name": "",
          "type": "tuple[]"
        }
      ],
      "stateMutability": "view",
      "type": "function",
      "constant": true
    },
    {
      "inputs": [
        {
          "internalType": "string",
          "name": "_name",
          "type": "string"
        }
      ],
      "name": "addManufacturer",
      "outputs": [
        {
          "components": [
            {
              "internalType": "address",
              "name": "id",
              "type": "address"
            },
            {
              "internalType": "string",
              "name": "name",
              "type": "string"
            },
            {
              "internalType": "uint256",
              "name": "total_products",
              "type": "uint256"
            }
          ],
          "internalType": "struct Vahan.Manufacturer",
          "name": "",
          "type": "tuple"
        }
      ],
      "stateMutability": "payable",
      "type": "function",
      "payable": true
    },
    {
      "inputs": [
        {
          "internalType": "string",
          "name": "_name",
          "type": "string"
        }
      ],
      "name": "addRetailer",
      "outputs": [
        {
          "components": [
            {
              "internalType": "address",
              "name": "id",
              "type": "address"
            },
            {
              "internalType": "string",
              "name": "name",
              "type": "string"
            },
            {
              "internalType": "uint256",
              "name": "total_products",
              "type": "uint256"
            }
          ],
          "internalType": "struct Vahan.Retailer",
          "name": "",
          "type": "tuple"
        }
      ],
      "stateMutability": "payable",
      "type": "function",
      "payable": true
    },
    {
      "inputs": [
        {
          "internalType": "string",
          "name": "_name",
          "type": "string"
        }
      ],
      "name": "addCustomer",
      "outputs": [
        {
          "components": [
            {
              "internalType": "address",
              "name": "id",
              "type": "address"
            },
            {
              "internalType": "string",
              "name": "name",
              "type": "string"
            },
            {
              "internalType": "uint256",
              "name": "total_orders",
              "type": "uint256"
            }
          ],
          "internalType": "struct Vahan.Customer",
          "name": "",
          "type": "tuple"
        }
      ],
      "stateMutability": "payable",
      "type": "function",
      "payable": true
    },
    {
      "inputs": [
        {
          "internalType": "string",
          "name": "_name",
          "type": "string"
        },
        {
          "internalType": "uint256",
          "name": "_price",
          "type": "uint256"
        },
        {
          "internalType": "string",
          "name": "_ipfs_hash",
          "type": "string"
        },
        {
          "internalType": "uint256",
          "name": "_time",
          "type": "uint256"
        }
      ],
      "name": "addProduct",
      "outputs": [
        {
          "components": [
            {
              "internalType": "uint256",
              "name": "id",
              "type": "uint256"
            },
            {
              "internalType": "string",
              "name": "name",
              "type": "string"
            },
            {
              "internalType": "uint256",
              "name": "price",
              "type": "uint256"
            },
            {
              "internalType": "string",
              "name": "ipfs_hash",
              "type": "string"
            },
            {
              "internalType": "enum Vahan.Stage",
              "name": "stage",
              "type": "uint8"
            },
            {
              "internalType": "address",
              "name": "manufacturer",
              "type": "address"
            },
            {
              "internalType": "uint256",
              "name": "total_retailers",
              "type": "uint256"
            },
            {
              "internalType": "address",
              "name": "customer",
              "type": "address"
            },
            {
              "internalType": "address",
              "name": "currentOwner",
              "type": "address"
            }
          ],
          "internalType": "struct Vahan.Product",
          "name": "",
          "type": "tuple"
        }
      ],
      "stateMutability": "payable",
      "type": "function",
      "payable": true
    },
    {
      "inputs": [
        {
          "internalType": "uint256",
          "name": "_productId",
          "type": "uint256"
        },
        {
          "internalType": "uint256",
          "name": "_time",
          "type": "uint256"
        }
      ],
      "name": "releaseProduct",
      "outputs": [
        {
          "components": [
            {
              "internalType": "uint256",
              "name": "id",
              "type": "uint256"
            },
            {
              "internalType": "string",
              "name": "name",
              "type": "string"
            },
            {
              "internalType": "uint256",
              "name": "price",
              "type": "uint256"
            },
            {
              "internalType": "string",
              "name": "ipfs_hash",
              "type": "string"
            },
            {
              "internalType": "enum Vahan.Stage",
              "name": "stage",
              "type": "uint8"
            },
            {
              "internalType": "address",
              "name": "manufacturer",
              "type": "address"
            },
            {
              "internalType": "uint256",
              "name": "total_retailers",
              "type": "uint256"
            },
            {
              "internalType": "address",
              "name": "customer",
              "type": "address"
            },
            {
              "internalType": "address",
              "name": "currentOwner",
              "type": "address"
            }
          ],
          "internalType": "struct Vahan.Product",
          "name": "",
          "type": "tuple"
        }
      ],
      "stateMutability": "payable",
      "type": "function",
      "payable": true
    },
    {
      "inputs": [
        {
          "internalType": "uint256",
          "name": "_productId",
          "type": "uint256"
        },
        {
          "internalType": "uint256",
          "name": "_time",
          "type": "uint256"
        }
      ],
      "name": "buyProduct",
      "outputs": [
        {
          "components": [
            {
              "internalType": "uint256",
              "name": "id",
              "type": "uint256"
            },
            {
              "internalType": "string",
              "name": "name",
              "type": "string"
            },
            {
              "internalType": "uint256",
              "name": "price",
              "type": "uint256"
            },
            {
              "internalType": "string",
              "name": "ipfs_hash",
              "type": "string"
            },
            {
              "internalType": "enum Vahan.Stage",
              "name": "stage",
              "type": "uint8"
            },
            {
              "internalType": "address",
              "name": "manufacturer",
              "type": "address"
            },
            {
              "internalType": "uint256",
              "name": "total_retailers",
              "type": "uint256"
            },
            {
              "internalType": "address",
              "name": "customer",
              "type": "address"
            },
            {
              "internalType": "address",
              "name": "currentOwner",
              "type": "address"
            }
          ],
          "internalType": "struct Vahan.Product",
          "name": "",
          "type": "tuple"
        }
      ],
      "stateMutability": "payable",
      "type": "function",
      "payable": true
    },
    {
      "inputs": [
        {
          "internalType": "address",
          "name": "_manufacturerId",
          "type": "address"
        }
      ],
      "name": "getManufacturerDetails",
      "outputs": [
        {
          "components": [
            {
              "internalType": "address",
              "name": "id",
              "type": "address"
            },
            {
              "internalType": "string",
              "name": "name",
              "type": "string"
            },
            {
              "internalType": "uint256",
              "name": "total_products",
              "type": "uint256"
            }
          ],
          "internalType": "struct Vahan.Manufacturer",
          "name": "",
          "type": "tuple"
        }
      ],
      "stateMutability": "view",
      "type": "function",
      "constant": true
    },
    {
      "inputs": [
        {
          "internalType": "address",
          "name": "_manufacturerId",
          "type": "address"
        }
      ],
      "name": "getManufacturerInventory",
      "outputs": [
        {
          "internalType": "uint256[]",
          "name": "",
          "type": "uint256[]"
        }
      ],
      "stateMutability": "view",
      "type": "function",
      "constant": true
    },
    {
      "inputs": [
        {
          "internalType": "address",
          "name": "_retailerId",
          "type": "address"
        }
      ],
      "name": "getRetailerDetails",
      "outputs": [
        {
          "components": [
            {
              "internalType": "address",
              "name": "id",
              "type": "address"
            },
            {
              "internalType": "string",
              "name": "name",
              "type": "string"
            },
            {
              "internalType": "uint256",
              "name": "total_products",
              "type": "uint256"
            }
          ],
          "internalType": "struct Vahan.Retailer",
          "name": "",
          "type": "tuple"
        }
      ],
      "stateMutability": "view",
      "type": "function",
      "constant": true
    },
    {
      "inputs": [
        {
          "internalType": "address",
          "name": "_retailerId",
          "type": "address"
        }
      ],
      "name": "getRetailerInventory",
      "outputs": [
        {
          "internalType": "uint256[]",
          "name": "",
          "type": "uint256[]"
        }
      ],
      "stateMutability": "view",
      "type": "function",
      "constant": true
    },
    {
      "inputs": [
        {
          "internalType": "address",
          "name": "_customerId",
          "type": "address"
        }
      ],
      "name": "getCustomerDetails",
      "outputs": [
        {
          "components": [
            {
              "internalType": "address",
              "name": "id",
              "type": "address"
            },
            {
              "internalType": "string",
              "name": "name",
              "type": "string"
            },
            {
              "internalType": "uint256",
              "name": "total_orders",
              "type": "uint256"
            }
          ],
          "internalType": "struct Vahan.Customer",
          "name": "",
          "type": "tuple"
        }
      ],
      "stateMutability": "view",
      "type": "function",
      "constant": true
    },
    {
      "inputs": [
        {
          "internalType": "address",
          "name": "_customerId",
          "type": "address"
        }
      ],
      "name": "getCustomerOrders",
      "outputs": [
        {
          "internalType": "uint256[]",
          "name": "",
          "type": "uint256[]"
        }
      ],
      "stateMutability": "view",
      "type": "function",
      "constant": true
    },
    {
      "inputs": [
        {
          "internalType": "uint256",
          "name": "_productId",
          "type": "uint256"
        }
      ],
      "name": "getProductDetails",
      "outputs": [
        {
          "components": [
            {
              "internalType": "uint256",
              "name": "id",
              "type": "uint256"
            },
            {
              "internalType": "string",
              "name": "name",
              "type": "string"
            },
            {
              "internalType": "uint256",
              "name": "price",
              "type": "uint256"
            },
            {
              "internalType": "string",
              "name": "ipfs_hash",
              "type": "string"
            },
            {
              "internalType": "enum Vahan.Stage",
              "name": "stage",
              "type": "uint8"
            },
            {
              "internalType": "address",
              "name": "manufacturer",
              "type": "address"
            },
            {
              "internalType": "uint256",
              "name": "total_retailers",
              "type": "uint256"
            },
            {
              "internalType": "address",
              "name": "customer",
              "type": "address"
            },
            {
              "internalType": "address",
              "name": "currentOwner",
              "type": "address"
            }
          ],
          "internalType": "struct Vahan.Product",
          "name": "",
          "type": "tuple"
        },
        {
          "components": [
            {
              "internalType": "address",
              "name": "id",
              "type": "address"
            },
            {
              "internalType": "string",
              "name": "name",
              "type": "string"
            },
            {
              "internalType": "uint256",
              "name": "total_products",
              "type": "uint256"
            }
          ],
          "internalType": "struct Vahan.Retailer[]",
          "name": "",
          "type": "tuple[]"
        },
        {
          "components": [
            {
              "internalType": "address",
              "name": "id",
              "type": "address"
            },
            {
              "internalType": "string",
              "name": "name",
              "type": "string"
            },
            {
              "internalType": "uint256",
              "name": "total_products",
              "type": "uint256"
            }
          ],
          "internalType": "struct Vahan.Manufacturer",
          "name": "",
          "type": "tuple"
        },
        {
          "components": [
            {
              "internalType": "address",
              "name": "id",
              "type": "address"
            },
            {
              "internalType": "string",
              "name": "name",
              "type": "string"
            },
            {
              "internalType": "uint256",
              "name": "total_orders",
              "type": "uint256"
            }
          ],
          "internalType": "struct Vahan.Customer",
          "name": "",
          "type": "tuple"
        }
      ],
      "stateMutability": "view",
      "type": "function",
      "constant": true
    },
    {
      "inputs": [
        {
          "internalType": "uint256",
          "name": "_productId",
          "type": "uint256"
        }
      ],
      "name": "getCurrentStatus",
      "outputs": [
        {
          "internalType": "enum Vahan.Stage",
          "name": "",
          "type": "uint8"
        },
        {
          "internalType": "address",
          "name": "",
          "type": "address"
        },
        {
          "components": [
            {
              "internalType": "address",
              "name": "id",
              "type": "address"
            },
            {
              "internalType": "string",
              "name": "name",
              "type": "string"
            },
            {
              "internalType": "uint256",
              "name": "total_products",
              "type": "uint256"
            }
          ],
          "internalType": "struct Vahan.Manufacturer",
          "name": "",
          "type": "tuple"
        },
        {
          "components": [
            {
              "internalType": "address",
              "name": "id",
              "type": "address"
            },
            {
              "internalType": "string",
              "name": "name",
              "type": "string"
            },
            {
              "internalType": "uint256",
              "name": "total_orders",
              "type": "uint256"
            }
          ],
          "internalType": "struct Vahan.Customer",
          "name": "",
          "type": "tuple"
        },
        {
          "components": [
            {
              "internalType": "address",
              "name": "id",
              "type": "address"
            },
            {
              "internalType": "string",
              "name": "name",
              "type": "string"
            },
            {
              "internalType": "uint256",
              "name": "total_products",
              "type": "uint256"
            }
          ],
          "internalType": "struct Vahan.Retailer",
          "name": "",
          "type": "tuple"
        }
      ],
      "stateMutability": "view",
      "type": "function",
      "constant": true
    },
    {
      "inputs": [
        {
          "internalType": "address",
          "name": "_user",
          "type": "address"
        }
      ],
      "name": "getUserType",
      "outputs": [
        {
          "internalType": "enum Vahan.Role",
          "name": "",
          "type": "uint8"
        }
      ],
      "stateMutability": "view",
      "type": "function",
      "constant": true
    }
  ],
  "bytecode": "0x60806040523480156200001157600080fd5b50600080819055507f7b156246723a58575721985ed99046dbbecb42c4dc7265035b5f6e3a9ceab4dc6040516200004890620000b7565b60405180910390a1620000d9565b600082825260208201905092915050565b7f566168616e20686173206265656e206465706c6f796564000000000000000000600082015250565b60006200009f60178362000056565b9150620000ac8262000067565b602082019050919050565b60006020820190508181036000830152620000d28162000090565b9050919050565b615e5d80620000e96000396000f3fe6080604052600436106101665760003560e01c80636813b53b116100d15780638f5ae7991161008a5780639a268f35116100645780639a268f351461061b578063a0aa13c61461065a578063c29b2f201461069b578063c41381a9146106c657610166565b80638f5ae7991461057e57806395d00407146105ae57806398383922146105de57610166565b80636813b53b146104155780636b5eb09c146104555780637acc0b20146104945780637efa6959146104d95780638ab7bada146105045780638b3f863f1461054157610166565b80633a2a925c116101235780633a2a925c146102c157806345b74c17146102f1578063482f63da1461032e57806353b628661461036b578063565040261461039b57806363ba8315146103d857610166565b806303dd3d811461016b5780630458c5d71461019b5780630c60f83d146101cb57806322713cc71461020857806322f974d214610245578063336989ae14610282575b600080fd5b61018560048036038101906101809190614af2565b610703565b6040516101929190614c6d565b60405180910390f35b6101b560048036038101906101b09190614cbb565b61089f565b6040516101c29190614e3e565b60405180910390f35b3480156101d757600080fd5b506101f260048036038101906101ed9190614e8c565b611555565b6040516101ff9190614c6d565b60405180910390f35b34801561021457600080fd5b5061022f600480360381019061022a9190614e8c565b6116a6565b60405161023c9190614f09565b60405180910390f35b34801561025157600080fd5b5061026c60048036038101906102679190614e8c565b6117f7565b6040516102799190614fda565b60405180910390f35b34801561028e57600080fd5b506102a960048036038101906102a49190614e8c565b611894565b6040516102b893929190615064565b60405180910390f35b6102db60048036038101906102d691906150a2565b611966565b6040516102e89190614e3e565b60405180910390f35b3480156102fd57600080fd5b5061031860048036038101906103139190614e8c565b612083565b6040516103259190614fda565b60405180910390f35b34801561033a57600080fd5b5061035560048036038101906103509190615141565b612120565b6040516103629190615181565b60405180910390f35b61038560048036038101906103809190614cbb565b612151565b6040516103929190614e3e565b60405180910390f35b3480156103a757600080fd5b506103c260048036038101906103bd9190615141565b612fc6565b6040516103cf9190615181565b60405180910390f35b3480156103e457600080fd5b506103ff60048036038101906103fa9190614e8c565b612ff7565b60405161040c91906151ec565b60405180910390f35b34801561042157600080fd5b5061043c6004803603810190610437919061520e565b613148565b60405161044c949392919061534d565b60405180910390f35b34801561046157600080fd5b5061047c60048036038101906104779190614e8c565b6135a6565b60405161048b93929190615064565b60405180910390f35b3480156104a057600080fd5b506104bb60048036038101906104b6919061520e565b613678565b6040516104d0999897969594939291906153bd565b60405180910390f35b3480156104e557600080fd5b506104ee613853565b6040516104fb9190615181565b60405180910390f35b34801561051057600080fd5b5061052b60048036038101906105269190615141565b613859565b6040516105389190615181565b60405180910390f35b34801561054d57600080fd5b5061056860048036038101906105639190614e8c565b61388a565b60405161057591906154a0565b60405180910390f35b61059860048036038101906105939190614af2565b613a72565b6040516105a59190614f09565b60405180910390f35b6105c860048036038101906105c39190614af2565b613c19565b6040516105d591906151ec565b60405180910390f35b3480156105ea57600080fd5b5061060560048036038101906106009190614e8c565b613dc0565b6040516106129190614fda565b60405180910390f35b34801561062757600080fd5b50610642600480360381019061063d9190614e8c565b613e5d565b60405161065193929190615064565b60405180910390f35b34801561066657600080fd5b50610681600480360381019061067c919061520e565b613f2f565b6040516106929594939291906154bb565b60405180910390f35b3480156106a757600080fd5b506106b0614331565b6040516106bd91906156b1565b60405180910390f35b3480156106d257600080fd5b506106ed60048036038101906106e89190614cbb565b614610565b6040516106fa91906156d3565b60405180910390f35b61070b61470c565b6000600460003373ffffffffffffffffffffffffffffffffffffffff1673ffffffffffffffffffffffffffffffffffffffff168152602001908152602001600020600101805461075a9061571d565b90501461079c576040517f08c379a0000000000000000000000000000000000000000000000000000000008152600401610793906157c1565b60405180910390fd5b6107a461470c565b33816000019073ffffffffffffffffffffffffffffffffffffffff16908173ffffffffffffffffffffffffffffffffffffffff168152505082816020018190525080600460003373ffffffffffffffffffffffffffffffffffffffff1673ffffffffffffffffffffffffffffffffffffffff16815260200190815260200160002060008201518160000160006101000a81548173ffffffffffffffffffffffffffffffffffffffff021916908373ffffffffffffffffffffffffffffffffffffffff1602179055506020820151816001019080519060200190610888929190614743565b506040820151816002015590505080915050919050565b6108a76147c9565b33600073ffffffffffffffffffffffffffffffffffffffff16600360008373ffffffffffffffffffffffffffffffffffffffff1673ffffffffffffffffffffffffffffffffffffffff16815260200190815260200160002060000160009054906101000a900473ffffffffffffffffffffffffffffffffffffffff1673ffffffffffffffffffffffffffffffffffffffff16141561097a576040517f08c379a000000000000000000000000000000000000000000000000000000000815260040161097190615853565b60405180910390fd5b60005484106109be576040517f08c379a00000000000000000000000000000000000000000000000000000000081526004016109b5906158bf565b60405180910390fd5b6000600185815481106109d4576109d36158df565b5b90600052602060002090600802016040518061012001604052908160008201548152602001600182018054610a089061571d565b80601f0160208091040260200160405190810160405280929190818152602001828054610a349061571d565b8015610a815780601f10610a5657610100808354040283529160200191610a81565b820191906000526020600020905b815481529060010190602001808311610a6457829003601f168201915b5050505050815260200160028201548152602001600382018054610aa49061571d565b80601f0160208091040260200160405190810160405280929190818152602001828054610ad09061571d565b8015610b1d5780601f10610af257610100808354040283529160200191610b1d565b820191906000526020600020905b815481529060010190602001808311610b0057829003601f168201915b505050505081526020016004820160009054906101000a900460ff166002811115610b4b57610b4a614cfb565b5b6002811115610b5d57610b5c614cfb565b5b81526020016004820160019054906101000a900473ffffffffffffffffffffffffffffffffffffffff1673ffffffffffffffffffffffffffffffffffffffff1673ffffffffffffffffffffffffffffffffffffffff168152602001600582015481526020016006820160009054906101000a900473ffffffffffffffffffffffffffffffffffffffff1673ffffffffffffffffffffffffffffffffffffffff1673ffffffffffffffffffffffffffffffffffffffff1681526020016007820160009054906101000a900473ffffffffffffffffffffffffffffffffffffffff1673ffffffffffffffffffffffffffffffffffffffff1673ffffffffffffffffffffffffffffffffffffffff1681525050905060006002811115610c8357610c82614cfb565b5b81608001516002811115610c9a57610c99614cfb565b5b14610cda576040517f08c379a0000000000000000000000000000000000000000000000000000000008152600401610cd190615980565b60405180910390fd5b60056000868152602001908152602001600020339080600181540180825580915050600190039060005260206000200160009091909190916101000a81548173ffffffffffffffffffffffffffffffffffffffff021916908373ffffffffffffffffffffffffffffffffffffffff1602179055508060c0018051809190610d60906159cf565b81525050600181608001906002811115610d7d57610d7c614cfb565b5b90816002811115610d9157610d90614cfb565b5b815250503381610100019073ffffffffffffffffffffffffffffffffffffffff16908173ffffffffffffffffffffffffffffffffffffffff16815250506000600260008360a0015173ffffffffffffffffffffffffffffffffffffffff1673ffffffffffffffffffffffffffffffffffffffff1681526020019081526020016000206040518060600160405290816000820160009054906101000a900473ffffffffffffffffffffffffffffffffffffffff1673ffffffffffffffffffffffffffffffffffffffff1673ffffffffffffffffffffffffffffffffffffffff168152602001600182018054610e849061571d565b80601f0160208091040260200160405190810160405280929190818152602001828054610eb09061571d565b8015610efd5780601f10610ed257610100808354040283529160200191610efd565b820191906000526020600020905b815481529060010190602001808311610ee057829003601f168201915b50505050508152602001600282015481525050905060005b816040015181101561103e5786600660008560a0015173ffffffffffffffffffffffffffffffffffffffff1673ffffffffffffffffffffffffffffffffffffffff1681526020019081526020016000208281548110610f7757610f766158df565b5b9060005260206000200154141561102b57610fd481600660008660a0015173ffffffffffffffffffffffffffffffffffffffff1673ffffffffffffffffffffffffffffffffffffffff16815260200190815260200160002061465e565b600660008560a0015173ffffffffffffffffffffffffffffffffffffffff1673ffffffffffffffffffffffffffffffffffffffff168152602001908152602001600020908054611025929190614869565b5061103e565b8080611036906159cf565b915050610f15565b506001816040018181516110529190615a18565b9150818152505080600260008460a0015173ffffffffffffffffffffffffffffffffffffffff1673ffffffffffffffffffffffffffffffffffffffff16815260200190815260200160002060008201518160000160006101000a81548173ffffffffffffffffffffffffffffffffffffffff021916908373ffffffffffffffffffffffffffffffffffffffff1602179055506020820151816001019080519060200190611100929190614743565b5060408201518160020155905050600760003373ffffffffffffffffffffffffffffffffffffffff1673ffffffffffffffffffffffffffffffffffffffff168152602001908152602001600020826000015190806001815401808255809150506001900390600052602060002001600090919091909150556000600360003373ffffffffffffffffffffffffffffffffffffffff1673ffffffffffffffffffffffffffffffffffffffff1681526020019081526020016000206040518060600160405290816000820160009054906101000a900473ffffffffffffffffffffffffffffffffffffffff1673ffffffffffffffffffffffffffffffffffffffff1673ffffffffffffffffffffffffffffffffffffffff16815260200160018201805461122a9061571d565b80601f01602080910402602001604051908101604052809291908181526020018280546112569061571d565b80156112a35780601f10611278576101008083540402835291602001916112a3565b820191906000526020600020905b81548152906001019060200180831161128657829003601f168201915b5050505050815260200160028201548152505090506001816040018181516112cb9190615a4c565b9150818152505080600360003373ffffffffffffffffffffffffffffffffffffffff1673ffffffffffffffffffffffffffffffffffffffff16815260200190815260200160002060008201518160000160006101000a81548173ffffffffffffffffffffffffffffffffffffffff021916908373ffffffffffffffffffffffffffffffffffffffff1602179055506020820151816001019080519060200190611375929190614743565b50604082015181600201559050508260018881548110611398576113976158df565b5b90600052602060002090600802016000820151816000015560208201518160010190805190602001906113cc929190614743565b506040820151816002015560608201518160030190805190602001906113f3929190614743565b5060808201518160040160006101000a81548160ff0219169083600281111561141f5761141e614cfb565b5b021790555060a08201518160040160016101000a81548173ffffffffffffffffffffffffffffffffffffffff021916908373ffffffffffffffffffffffffffffffffffffffff16021790555060c0820151816005015560e08201518160060160006101000a81548173ffffffffffffffffffffffffffffffffffffffff021916908373ffffffffffffffffffffffffffffffffffffffff1602179055506101008201518160070160006101000a81548173ffffffffffffffffffffffffffffffffffffffff021916908373ffffffffffffffffffffffffffffffffffffffff1602179055509050507fb682cb3ef1a902a3234df9dcec0308d14f06c57140df377efbca2044c5c7255b878460a0015133896040516115409493929190615aa2565b60405180910390a18294505050505092915050565b61155d61470c565b6000600460008473ffffffffffffffffffffffffffffffffffffffff1673ffffffffffffffffffffffffffffffffffffffff1681526020019081526020016000206040518060600160405290816000820160009054906101000a900473ffffffffffffffffffffffffffffffffffffffff1673ffffffffffffffffffffffffffffffffffffffff1673ffffffffffffffffffffffffffffffffffffffff16815260200160018201805461160f9061571d565b80601f016020809104026020016040519081016040528092919081815260200182805461163b9061571d565b80156116885780601f1061165d57610100808354040283529160200191611688565b820191906000526020600020905b81548152906001019060200180831161166b57829003601f168201915b50505050508152602001600282015481525050905080915050919050565b6116ae6148bb565b6000600260008473ffffffffffffffffffffffffffffffffffffffff1673ffffffffffffffffffffffffffffffffffffffff1681526020019081526020016000206040518060600160405290816000820160009054906101000a900473ffffffffffffffffffffffffffffffffffffffff1673ffffffffffffffffffffffffffffffffffffffff1673ffffffffffffffffffffffffffffffffffffffff1681526020016001820180546117609061571d565b80601f016020809104026020016040519081016040528092919081815260200182805461178c9061571d565b80156117d95780601f106117ae576101008083540402835291602001916117d9565b820191906000526020600020905b8154815290600101906020018083116117bc57829003601f168201915b50505050508152602001600282015481525050905080915050919050565b60606000600860008473ffffffffffffffffffffffffffffffffffffffff1673ffffffffffffffffffffffffffffffffffffffff16815260200190815260200160002080548060200260200160405190810160405280929190818152602001828054801561188457602002820191906000526020600020905b815481526020019060010190808311611870575b5050505050905080915050919050565b60046020528060005260406000206000915090508060000160009054906101000a900473ffffffffffffffffffffffffffffffffffffffff16908060010180546118dd9061571d565b80601f01602080910402602001604051908101604052809291908181526020018280546119099061571d565b80156119565780601f1061192b57610100808354040283529160200191611956565b820191906000526020600020905b81548152906001019060200180831161193957829003601f168201915b5050505050908060020154905083565b61196e6147c9565b33600073ffffffffffffffffffffffffffffffffffffffff16600260008373ffffffffffffffffffffffffffffffffffffffff1673ffffffffffffffffffffffffffffffffffffffff16815260200190815260200160002060000160009054906101000a900473ffffffffffffffffffffffffffffffffffffffff1673ffffffffffffffffffffffffffffffffffffffff161415611a41576040517f08c379a0000000000000000000000000000000000000000000000000000000008152600401611a3890615b59565b60405180910390fd5b600073ffffffffffffffffffffffffffffffffffffffff16600260003373ffffffffffffffffffffffffffffffffffffffff1673ffffffffffffffffffffffffffffffffffffffff16815260200190815260200160002060000160009054906101000a900473ffffffffffffffffffffffffffffffffffffffff1673ffffffffffffffffffffffffffffffffffffffff161415611b13576040517f08c379a0000000000000000000000000000000000000000000000000000000008152600401611b0a90615beb565b60405180910390fd5b6000600260003373ffffffffffffffffffffffffffffffffffffffff1673ffffffffffffffffffffffffffffffffffffffff1681526020019081526020016000206040518060600160405290816000820160009054906101000a900473ffffffffffffffffffffffffffffffffffffffff1673ffffffffffffffffffffffffffffffffffffffff1673ffffffffffffffffffffffffffffffffffffffff168152602001600182018054611bc59061571d565b80601f0160208091040260200160405190810160405280929190818152602001828054611bf19061571d565b8015611c3e5780601f10611c1357610100808354040283529160200191611c3e565b820191906000526020600020905b815481529060010190602001808311611c2157829003601f168201915b505050505081526020016002820154815250509050611c5b6147c9565b6000548160000181815250508781602001819052508681604001818152505085816060018190525081600001518160a0019073ffffffffffffffffffffffffffffffffffffffff16908173ffffffffffffffffffffffffffffffffffffffff1681525050600081608001906002811115611cd857611cd7614cfb565b5b90816002811115611cec57611ceb614cfb565b5b8152505060008160c00181815250503381610100019073ffffffffffffffffffffffffffffffffffffffff16908173ffffffffffffffffffffffffffffffffffffffff16815250506001819080600181540180825580915050600190039060005260206000209060080201600090919091909150600082015181600001556020820151816001019080519060200190611d86929190614743565b50604082015181600201556060820151816003019080519060200190611dad929190614743565b5060808201518160040160006101000a81548160ff02191690836002811115611dd957611dd8614cfb565b5b021790555060a08201518160040160016101000a81548173ffffffffffffffffffffffffffffffffffffffff021916908373ffffffffffffffffffffffffffffffffffffffff16021790555060c0820151816005015560e08201518160060160006101000a81548173ffffffffffffffffffffffffffffffffffffffff021916908373ffffffffffffffffffffffffffffffffffffffff1602179055506101008201518160070160006101000a81548173ffffffffffffffffffffffffffffffffffffffff021916908373ffffffffffffffffffffffffffffffffffffffff16021790555050506001600080828254611ed29190615a4c565b92505081905550600660003373ffffffffffffffffffffffffffffffffffffffff1673ffffffffffffffffffffffffffffffffffffffff16815260200190815260200160002081600001519080600181540180825580915050600190039060005260206000200160009091909190915055600182604001818151611f569190615a4c565b9150818152505081600260003373ffffffffffffffffffffffffffffffffffffffff1673ffffffffffffffffffffffffffffffffffffffff16815260200190815260200160002060008201518160000160006101000a81548173ffffffffffffffffffffffffffffffffffffffff021916908373ffffffffffffffffffffffffffffffffffffffff1602179055506020820151816001019080519060200190612000929190614743565b5060408201518160020155905050600960056000836000015181526020019081526020016000209080546120359291906148f2565b507f2d7e548cd55c5877c277ad065972404b06ea61314bd4d49a46c1aaaa1d353cd78160000151338760405161206d93929190615c0b565b60405180910390a1809350505050949350505050565b60606000600660008473ffffffffffffffffffffffffffffffffffffffff1673ffffffffffffffffffffffffffffffffffffffff16815260200190815260200160002080548060200260200160405190810160405280929190818152602001828054801561211057602002820191906000526020600020905b8154815260200190600101908083116120fc575b5050505050905080915050919050565b6006602052816000526040600020818154811061213c57600080fd5b90600052602060002001600091509150505481565b6121596147c9565b33600073ffffffffffffffffffffffffffffffffffffffff16600460008373ffffffffffffffffffffffffffffffffffffffff1673ffffffffffffffffffffffffffffffffffffffff16815260200190815260200160002060000160009054906101000a900473ffffffffffffffffffffffffffffffffffffffff1673ffffffffffffffffffffffffffffffffffffffff16141561222c576040517f08c379a000000000000000000000000000000000000000000000000000000000815260040161222390615cb4565b60405180910390fd5b6000548410612270576040517f08c379a0000000000000000000000000000000000000000000000000000000008152600401612267906158bf565b60405180910390fd5b600060018581548110612286576122856158df565b5b906000526020600020906008020160405180610120016040529081600082015481526020016001820180546122ba9061571d565b80601f01602080910402602001604051908101604052809291908181526020018280546122e69061571d565b80156123335780601f1061230857610100808354040283529160200191612333565b820191906000526020600020905b81548152906001019060200180831161231657829003601f168201915b50505050508152602001600282015481526020016003820180546123569061571d565b80601f01602080910402602001604051908101604052809291908181526020018280546123829061571d565b80156123cf5780601f106123a4576101008083540402835291602001916123cf565b820191906000526020600020905b8154815290600101906020018083116123b257829003601f168201915b505050505081526020016004820160009054906101000a900460ff1660028111156123fd576123fc614cfb565b5b600281111561240f5761240e614cfb565b5b81526020016004820160019054906101000a900473ffffffffffffffffffffffffffffffffffffffff1673ffffffffffffffffffffffffffffffffffffffff1673ffffffffffffffffffffffffffffffffffffffff168152602001600582015481526020016006820160009054906101000a900473ffffffffffffffffffffffffffffffffffffffff1673ffffffffffffffffffffffffffffffffffffffff1673ffffffffffffffffffffffffffffffffffffffff1681526020016007820160009054906101000a900473ffffffffffffffffffffffffffffffffffffffff1673ffffffffffffffffffffffffffffffffffffffff1673ffffffffffffffffffffffffffffffffffffffff168152505090506001600281111561253557612534614cfb565b5b8160800151600281111561254c5761254b614cfb565b5b1461258c576040517f08c379a000000000000000000000000000000000000000000000000000000000815260040161258390615d46565b60405180910390fd5b6000600560008360000151815260200190815260200160002060018360c001516125b69190615a18565b815481106125c7576125c66158df565b5b9060005260206000200160009054906101000a900473ffffffffffffffffffffffffffffffffffffffff1690506000600360008373ffffffffffffffffffffffffffffffffffffffff1673ffffffffffffffffffffffffffffffffffffffff1681526020019081526020016000206040518060600160405290816000820160009054906101000a900473ffffffffffffffffffffffffffffffffffffffff1673ffffffffffffffffffffffffffffffffffffffff1673ffffffffffffffffffffffffffffffffffffffff1681526020016001820180546126a69061571d565b80601f01602080910402602001604051908101604052809291908181526020018280546126d29061571d565b801561271f5780601f106126f45761010080835404028352916020019161271f565b820191906000526020600020905b81548152906001019060200180831161270257829003601f168201915b5050505050815260200160028201548152505090506000600460003373ffffffffffffffffffffffffffffffffffffffff1673ffffffffffffffffffffffffffffffffffffffff1681526020019081526020016000206040518060600160405290816000820160009054906101000a900473ffffffffffffffffffffffffffffffffffffffff1673ffffffffffffffffffffffffffffffffffffffff1673ffffffffffffffffffffffffffffffffffffffff1681526020016001820180546127e69061571d565b80601f01602080910402602001604051908101604052809291908181526020018280546128129061571d565b801561285f5780601f106128345761010080835404028352916020019161285f565b820191906000526020600020905b81548152906001019060200180831161284257829003601f168201915b50505050508152602001600282015481525050905060028460800190600281111561288d5761288c614cfb565b5b908160028111156128a1576128a0614cfb565b5b8152505080600001518460e0019073ffffffffffffffffffffffffffffffffffffffff16908173ffffffffffffffffffffffffffffffffffffffff16815250503384610100019073ffffffffffffffffffffffffffffffffffffffff16908173ffffffffffffffffffffffffffffffffffffffff16815250506000600560008a81526020019081526020016000206001600560008c8152602001908152602001600020805490506129529190615a18565b81548110612963576129626158df565b5b9060005260206000200160009054906101000a900473ffffffffffffffffffffffffffffffffffffffff1690506000600360008373ffffffffffffffffffffffffffffffffffffffff1673ffffffffffffffffffffffffffffffffffffffff1681526020019081526020016000206040518060600160405290816000820160009054906101000a900473ffffffffffffffffffffffffffffffffffffffff1673ffffffffffffffffffffffffffffffffffffffff1673ffffffffffffffffffffffffffffffffffffffff168152602001600182018054612a429061571d565b80601f0160208091040260200160405190810160405280929190818152602001828054612a6e9061571d565b8015612abb5780601f10612a9057610100808354040283529160200191612abb565b820191906000526020600020905b815481529060010190602001808311612a9e57829003601f168201915b50505050508152602001600282015481525050905060005b8160400151811015612bf0578a600760008573ffffffffffffffffffffffffffffffffffffffff1673ffffffffffffffffffffffffffffffffffffffff1681526020019081526020016000208281548110612b3157612b306158df565b5b90600052602060002001541415612bdd57612b8a81600760008673ffffffffffffffffffffffffffffffffffffffff1673ffffffffffffffffffffffffffffffffffffffff16815260200190815260200160002061465e565b600760008573ffffffffffffffffffffffffffffffffffffffff1673ffffffffffffffffffffffffffffffffffffffff168152602001908152602001600020908054612bd7929190614869565b50612bf0565b8080612be8906159cf565b915050612ad3565b50600181604001818151612c049190615a18565b9150818152505080600360008473ffffffffffffffffffffffffffffffffffffffff1673ffffffffffffffffffffffffffffffffffffffff16815260200190815260200160002060008201518160000160006101000a81548173ffffffffffffffffffffffffffffffffffffffff021916908373ffffffffffffffffffffffffffffffffffffffff1602179055506020820151816001019080519060200190612cae929190614743565b5060408201518160020155905050600860003373ffffffffffffffffffffffffffffffffffffffff1673ffffffffffffffffffffffffffffffffffffffff16815260200190815260200160002086600001519080600181540180825580915050600190039060005260206000200160009091909190915055600183604001818151612d399190615a4c565b9150818152505082600460003373ffffffffffffffffffffffffffffffffffffffff1673ffffffffffffffffffffffffffffffffffffffff16815260200190815260200160002060008201518160000160006101000a81548173ffffffffffffffffffffffffffffffffffffffff021916908373ffffffffffffffffffffffffffffffffffffffff1602179055506020820151816001019080519060200190612de3929190614743565b50604082015181600201559050508560018b81548110612e0657612e056158df565b5b9060005260206000209060080201600082015181600001556020820151816001019080519060200190612e3a929190614743565b50604082015181600201556060820151816003019080519060200190612e61929190614743565b5060808201518160040160006101000a81548160ff02191690836002811115612e8d57612e8c614cfb565b5b021790555060a08201518160040160016101000a81548173ffffffffffffffffffffffffffffffffffffffff021916908373ffffffffffffffffffffffffffffffffffffffff16021790555060c0820151816005015560e08201518160060160006101000a81548173ffffffffffffffffffffffffffffffffffffffff021916908373ffffffffffffffffffffffffffffffffffffffff1602179055506101008201518160070160006101000a81548173ffffffffffffffffffffffffffffffffffffffff021916908373ffffffffffffffffffffffffffffffffffffffff1602179055509050507f19800d2adcaee3f3c61c7f1bb2b073caf7d1c09ff1ece9e293c93778448c27b28a8560000151338c604051612fae9493929190615aa2565b60405180910390a18597505050505050505092915050565b60086020528160005260406000208181548110612fe257600080fd5b90600052602060002001600091509150505481565b612fff614944565b6000600360008473ffffffffffffffffffffffffffffffffffffffff1673ffffffffffffffffffffffffffffffffffffffff1681526020019081526020016000206040518060600160405290816000820160009054906101000a900473ffffffffffffffffffffffffffffffffffffffff1673ffffffffffffffffffffffffffffffffffffffff1673ffffffffffffffffffffffffffffffffffffffff1681526020016001820180546130b19061571d565b80601f01602080910402602001604051908101604052809291908181526020018280546130dd9061571d565b801561312a5780601f106130ff5761010080835404028352916020019161312a565b820191906000526020600020905b81548152906001019060200180831161310d57829003601f168201915b50505050508152602001600282015481525050905080915050919050565b6131506147c9565b606061315a6148bb565b61316261470c565b600060018681548110613178576131776158df565b5b906000526020600020906008020160405180610120016040529081600082015481526020016001820180546131ac9061571d565b80601f01602080910402602001604051908101604052809291908181526020018280546131d89061571d565b80156132255780601f106131fa57610100808354040283529160200191613225565b820191906000526020600020905b81548152906001019060200180831161320857829003601f168201915b50505050508152602001600282015481526020016003820180546132489061571d565b80601f01602080910402602001604051908101604052809291908181526020018280546132749061571d565b80156132c15780601f10613296576101008083540402835291602001916132c1565b820191906000526020600020905b8154815290600101906020018083116132a457829003601f168201915b505050505081526020016004820160009054906101000a900460ff1660028111156132ef576132ee614cfb565b5b600281111561330157613300614cfb565b5b81526020016004820160019054906101000a900473ffffffffffffffffffffffffffffffffffffffff1673ffffffffffffffffffffffffffffffffffffffff1673ffffffffffffffffffffffffffffffffffffffff168152602001600582015481526020016006820160009054906101000a900473ffffffffffffffffffffffffffffffffffffffff1673ffffffffffffffffffffffffffffffffffffffff1673ffffffffffffffffffffffffffffffffffffffff1681526020016007820160009054906101000a900473ffffffffffffffffffffffffffffffffffffffff1673ffffffffffffffffffffffffffffffffffffffff1673ffffffffffffffffffffffffffffffffffffffff168152505090506000600560008881526020019081526020016000208054806020026020016040519081016040528092919081815260200182805480156134a857602002820191906000526020600020905b8160009054906101000a900473ffffffffffffffffffffffffffffffffffffffff1673ffffffffffffffffffffffffffffffffffffffff168152602001906001019080831161345e575b5050505050905060008260c0015167ffffffffffffffff8111156134cf576134ce6149c7565b5b60405190808252806020026020018201604052801561350857816020015b6134f5614944565b8152602001906001900390816134ed5790505b509050600061351a8460a001516116a6565b9050600061352b8560e00151611555565b905060005b845181101561358d5761355c85828151811061354f5761354e6158df565b5b6020026020010151612ff7565b84828151811061356f5761356e6158df565b5b60200260200101819052508080613585906159cf565b915050613530565b5084838383985098509850985050505050509193509193565b60026020528060005260406000206000915090508060000160009054906101000a900473ffffffffffffffffffffffffffffffffffffffff16908060010180546135ef9061571d565b80601f016020809104026020016040519081016040528092919081815260200182805461361b9061571d565b80156136685780601f1061363d57610100808354040283529160200191613668565b820191906000526020600020905b81548152906001019060200180831161364b57829003601f168201915b5050505050908060020154905083565b6001818154811061368857600080fd5b90600052602060002090600802016000915090508060000154908060010180546136b19061571d565b80601f01602080910402602001604051908101604052809291908181526020018280546136dd9061571d565b801561372a5780601f106136ff5761010080835404028352916020019161372a565b820191906000526020600020905b81548152906001019060200180831161370d57829003601f168201915b5050505050908060020154908060030180546137459061571d565b80601f01602080910402602001604051908101604052809291908181526020018280546137719061571d565b80156137be5780601f10613793576101008083540402835291602001916137be565b820191906000526020600020905b8154815290600101906020018083116137a157829003601f168201915b5050505050908060040160009054906101000a900460ff16908060040160019054906101000a900473ffffffffffffffffffffffffffffffffffffffff16908060050154908060060160009054906101000a900473ffffffffffffffffffffffffffffffffffffffff16908060070160009054906101000a900473ffffffffffffffffffffffffffffffffffffffff16905089565b60005481565b6007602052816000526040600020818154811061387557600080fd5b90600052602060002001600091509150505481565b60008073ffffffffffffffffffffffffffffffffffffffff16600260008473ffffffffffffffffffffffffffffffffffffffff1673ffffffffffffffffffffffffffffffffffffffff16815260200190815260200160002060000160009054906101000a900473ffffffffffffffffffffffffffffffffffffffff1673ffffffffffffffffffffffffffffffffffffffff161461392a5760009050613a6d565b600073ffffffffffffffffffffffffffffffffffffffff16600360008473ffffffffffffffffffffffffffffffffffffffff1673ffffffffffffffffffffffffffffffffffffffff16815260200190815260200160002060000160009054906101000a900473ffffffffffffffffffffffffffffffffffffffff1673ffffffffffffffffffffffffffffffffffffffff16146139c95760019050613a6d565b600073ffffffffffffffffffffffffffffffffffffffff16600460008473ffffffffffffffffffffffffffffffffffffffff1673ffffffffffffffffffffffffffffffffffffffff16815260200190815260200160002060000160009054906101000a900473ffffffffffffffffffffffffffffffffffffffff1673ffffffffffffffffffffffffffffffffffffffff1614613a685760029050613a6d565b600390505b919050565b613a7a6148bb565b6000600260003373ffffffffffffffffffffffffffffffffffffffff1673ffffffffffffffffffffffffffffffffffffffff1681526020019081526020016000206001018054613ac99061571d565b905014613b0b576040517f08c379a0000000000000000000000000000000000000000000000000000000008152600401613b0290615dd8565b60405180910390fd5b613b136148bb565b33816000019073ffffffffffffffffffffffffffffffffffffffff16908173ffffffffffffffffffffffffffffffffffffffff1681525050828160200181905250600081604001818152505080600260003373ffffffffffffffffffffffffffffffffffffffff1673ffffffffffffffffffffffffffffffffffffffff16815260200190815260200160002060008201518160000160006101000a81548173ffffffffffffffffffffffffffffffffffffffff021916908373ffffffffffffffffffffffffffffffffffffffff1602179055506020820151816001019080519060200190613c02929190614743565b506040820151816002015590505080915050919050565b613c21614944565b6000600360003373ffffffffffffffffffffffffffffffffffffffff1673ffffffffffffffffffffffffffffffffffffffff1681526020019081526020016000206001018054613c709061571d565b905014613cb2576040517f08c379a0000000000000000000000000000000000000000000000000000000008152600401613ca9906157c1565b60405180910390fd5b613cba614944565b33816000019073ffffffffffffffffffffffffffffffffffffffff16908173ffffffffffffffffffffffffffffffffffffffff1681525050828160200181905250600081604001818152505080600360003373ffffffffffffffffffffffffffffffffffffffff1673ffffffffffffffffffffffffffffffffffffffff16815260200190815260200160002060008201518160000160006101000a81548173ffffffffffffffffffffffffffffffffffffffff021916908373ffffffffffffffffffffffffffffffffffffffff1602179055506020820151816001019080519060200190613da9929190614743565b506040820151816002015590505080915050919050565b60606000600760008473ffffffffffffffffffffffffffffffffffffffff1673ffffffffffffffffffffffffffffffffffffffff168152602001908152602001600020805480602002602001604051908101604052809291908181526020018280548015613e4d57602002820191906000526020600020905b815481526020019060010190808311613e39575b5050505050905080915050919050565b60036020528060005260406000206000915090508060000160009054906101000a900473ffffffffffffffffffffffffffffffffffffffff1690806001018054613ea69061571d565b80601f0160208091040260200160405190810160405280929190818152602001828054613ed29061571d565b8015613f1f5780601f10613ef457610100808354040283529160200191613f1f565b820191906000526020600020905b815481529060010190602001808311613f0257829003601f168201915b5050505050908060020154905083565b600080613f3a6148bb565b613f4261470c565b613f4a614944565b60008060018881548110613f6157613f606158df565b5b90600052602060002090600802016040518061012001604052908160008201548152602001600182018054613f959061571d565b80601f0160208091040260200160405190810160405280929190818152602001828054613fc19061571d565b801561400e5780601f10613fe35761010080835404028352916020019161400e565b820191906000526020600020905b815481529060010190602001808311613ff157829003601f168201915b50505050508152602001600282015481526020016003820180546140319061571d565b80601f016020809104026020016040519081016040528092919081815260200182805461405d9061571d565b80156140aa5780601f1061407f576101008083540402835291602001916140aa565b820191906000526020600020905b81548152906001019060200180831161408d57829003601f168201915b505050505081526020016004820160009054906101000a900460ff1660028111156140d8576140d7614cfb565b5b60028111156140ea576140e9614cfb565b5b81526020016004820160019054906101000a900473ffffffffffffffffffffffffffffffffffffffff1673ffffffffffffffffffffffffffffffffffffffff1673ffffffffffffffffffffffffffffffffffffffff168152602001600582015481526020016006820160009054906101000a900473ffffffffffffffffffffffffffffffffffffffff1673ffffffffffffffffffffffffffffffffffffffff1673ffffffffffffffffffffffffffffffffffffffff1681526020016007820160009054906101000a900473ffffffffffffffffffffffffffffffffffffffff1673ffffffffffffffffffffffffffffffffffffffff1673ffffffffffffffffffffffffffffffffffffffff1681525050905060008160800151905061420d6148bb565b61421561470c565b61421d614944565b6000600281111561423157614230614cfb565b5b84600281111561424457614243614cfb565b5b1415614261578460a00151955061425a866116a6565b9250614313565b60028081111561427457614273614cfb565b5b84600281111561428757614286614cfb565b5b14156142a4578460e00151955061429d86611555565b9150614312565b600560008d815260200190815260200160002060018660c001516142c89190615a18565b815481106142d9576142d86158df565b5b9060005260206000200160009054906101000a900473ffffffffffffffffffffffffffffffffffffffff16955061430f86612ff7565b90505b5b83868484849a509a509a509a509a5050505050505091939590929450565b60606001805480602002602001604051908101604052809291908181526020016000905b82821015614607578382906000526020600020906008020160405180610120016040529081600082015481526020016001820180546143939061571d565b80601f01602080910402602001604051908101604052809291908181526020018280546143bf9061571d565b801561440c5780601f106143e15761010080835404028352916020019161440c565b820191906000526020600020905b8154815290600101906020018083116143ef57829003601f168201915b505050505081526020016002820154815260200160038201805461442f9061571d565b80601f016020809104026020016040519081016040528092919081815260200182805461445b9061571d565b80156144a85780601f1061447d576101008083540402835291602001916144a8565b820191906000526020600020905b81548152906001019060200180831161448b57829003601f168201915b505050505081526020016004820160009054906101000a900460ff1660028111156144d6576144d5614cfb565b5b60028111156144e8576144e7614cfb565b5b81526020016004820160019054906101000a900473ffffffffffffffffffffffffffffffffffffffff1673ffffffffffffffffffffffffffffffffffffffff1673ffffffffffffffffffffffffffffffffffffffff168152602001600582015481526020016006820160009054906101000a900473ffffffffffffffffffffffffffffffffffffffff1673ffffffffffffffffffffffffffffffffffffffff1673ffffffffffffffffffffffffffffffffffffffff1681526020016007820160009054906101000a900473ffffffffffffffffffffffffffffffffffffffff1673ffffffffffffffffffffffffffffffffffffffff1673ffffffffffffffffffffffffffffffffffffffff168152505081526020019060010190614355565b50505050905090565b6005602052816000526040600020818154811061462c57600080fd5b906000526020600020016000915091509054906101000a900473ffffffffffffffffffffffffffffffffffffffff1681565b6000808390505b600183805490506146769190615a18565b8110156146db578260018261468b9190615a4c565b8154811061469c5761469b6158df565b5b90600052602060002001548382815481106146ba576146b96158df565b5b906000526020600020018190555080806146d3906159cf565b915050614665565b50818054806146ed576146ec615df8565b5b6001900381819060005260206000200160009055905581905092915050565b6040518060600160405280600073ffffffffffffffffffffffffffffffffffffffff16815260200160608152602001600081525090565b82805461474f9061571d565b90600052602060002090601f01602090048101928261477157600085556147b8565b82601f1061478a57805160ff19168380011785556147b8565b828001600101855582156147b8579182015b828111156147b757825182559160200191906001019061479c565b5b5090506147c5919061497b565b5090565b604051806101200160405280600081526020016060815260200160008152602001606081526020016000600281111561480557614804614cfb565b5b8152602001600073ffffffffffffffffffffffffffffffffffffffff16815260200160008152602001600073ffffffffffffffffffffffffffffffffffffffff168152602001600073ffffffffffffffffffffffffffffffffffffffff1681525090565b8280548282559060005260206000209081019282156148aa5760005260206000209182015b828111156148a957825482559160010191906001019061488e565b5b5090506148b7919061497b565b5090565b6040518060600160405280600073ffffffffffffffffffffffffffffffffffffffff16815260200160608152602001600081525090565b8280548282559060005260206000209081019282156149335760005260206000209182015b82811115614932578254825591600101919060010190614917565b5b509050614940919061497b565b5090565b6040518060600160405280600073ffffffffffffffffffffffffffffffffffffffff16815260200160608152602001600081525090565b5b8082111561499457600081600090555060010161497c565b5090565b6000604051905090565b600080fd5b600080fd5b600080fd5b600080fd5b6000601f19601f8301169050919050565b7f4e487b7100000000000000000000000000000000000000000000000000000000600052604160045260246000fd5b6149ff826149b6565b810181811067ffffffffffffffff82111715614a1e57614a1d6149c7565b5b80604052505050565b6000614a31614998565b9050614a3d82826149f6565b919050565b600067ffffffffffffffff821115614a5d57614a5c6149c7565b5b614a66826149b6565b9050602081019050919050565b82818337600083830152505050565b6000614a95614a9084614a42565b614a27565b905082815260208101848484011115614ab157614ab06149b1565b5b614abc848285614a73565b509392505050565b600082601f830112614ad957614ad86149ac565b5b8135614ae9848260208601614a82565b91505092915050565b600060208284031215614b0857614b076149a2565b5b600082013567ffffffffffffffff811115614b2657614b256149a7565b5b614b3284828501614ac4565b91505092915050565b600073ffffffffffffffffffffffffffffffffffffffff82169050919050565b6000614b6682614b3b565b9050919050565b614b7681614b5b565b82525050565b600081519050919050565b600082825260208201905092915050565b60005b83811015614bb6578082015181840152602081019050614b9b565b83811115614bc5576000848401525b50505050565b6000614bd682614b7c565b614be08185614b87565b9350614bf0818560208601614b98565b614bf9816149b6565b840191505092915050565b6000819050919050565b614c1781614c04565b82525050565b6000606083016000830151614c356000860182614b6d565b5060208301518482036020860152614c4d8282614bcb565b9150506040830151614c626040860182614c0e565b508091505092915050565b60006020820190508181036000830152614c878184614c1d565b905092915050565b614c9881614c04565b8114614ca357600080fd5b50565b600081359050614cb581614c8f565b92915050565b60008060408385031215614cd257614cd16149a2565b5b6000614ce085828601614ca6565b9250506020614cf185828601614ca6565b9150509250929050565b7f4e487b7100000000000000000000000000000000000000000000000000000000600052602160045260246000fd5b60038110614d3b57614d3a614cfb565b5b50565b6000819050614d4c82614d2a565b919050565b6000614d5c82614d3e565b9050919050565b614d6c81614d51565b82525050565b600061012083016000830151614d8b6000860182614c0e565b5060208301518482036020860152614da38282614bcb565b9150506040830151614db86040860182614c0e565b5060608301518482036060860152614dd08282614bcb565b9150506080830151614de56080860182614d63565b5060a0830151614df860a0860182614b6d565b5060c0830151614e0b60c0860182614c0e565b5060e0830151614e1e60e0860182614b6d565b50610100830151614e33610100860182614b6d565b508091505092915050565b60006020820190508181036000830152614e588184614d72565b905092915050565b614e6981614b5b565b8114614e7457600080fd5b50565b600081359050614e8681614e60565b92915050565b600060208284031215614ea257614ea16149a2565b5b6000614eb084828501614e77565b91505092915050565b6000606083016000830151614ed16000860182614b6d565b5060208301518482036020860152614ee98282614bcb565b9150506040830151614efe6040860182614c0e565b508091505092915050565b60006020820190508181036000830152614f238184614eb9565b905092915050565b600081519050919050565b600082825260208201905092915050565b6000819050602082019050919050565b6000614f638383614c0e565b60208301905092915050565b6000602082019050919050565b6000614f8782614f2b565b614f918185614f36565b9350614f9c83614f47565b8060005b83811015614fcd578151614fb48882614f57565b9750614fbf83614f6f565b925050600181019050614fa0565b5085935050505092915050565b60006020820190508181036000830152614ff48184614f7c565b905092915050565b61500581614b5b565b82525050565b600082825260208201905092915050565b600061502782614b7c565b615031818561500b565b9350615041818560208601614b98565b61504a816149b6565b840191505092915050565b61505e81614c04565b82525050565b60006060820190506150796000830186614ffc565b818103602083015261508b818561501c565b905061509a6040830184615055565b949350505050565b600080600080608085870312156150bc576150bb6149a2565b5b600085013567ffffffffffffffff8111156150da576150d96149a7565b5b6150e687828801614ac4565b94505060206150f787828801614ca6565b935050604085013567ffffffffffffffff811115615118576151176149a7565b5b61512487828801614ac4565b925050606061513587828801614ca6565b91505092959194509250565b60008060408385031215615158576151576149a2565b5b600061516685828601614e77565b925050602061517785828601614ca6565b9150509250929050565b60006020820190506151966000830184615055565b92915050565b60006060830160008301516151b46000860182614b6d565b50602083015184820360208601526151cc8282614bcb565b91505060408301516151e16040860182614c0e565b508091505092915050565b60006020820190508181036000830152615206818461519c565b905092915050565b600060208284031215615224576152236149a2565b5b600061523284828501614ca6565b91505092915050565b600081519050919050565b600082825260208201905092915050565b6000819050602082019050919050565b600060608301600083015161527f6000860182614b6d565b50602083015184820360208601526152978282614bcb565b91505060408301516152ac6040860182614c0e565b508091505092915050565b60006152c38383615267565b905092915050565b6000602082019050919050565b60006152e38261523b565b6152ed8185615246565b9350836020820285016152ff85615257565b8060005b8581101561533b578484038952815161531c85826152b7565b9450615327836152cb565b925060208a01995050600181019050615303565b50829750879550505050505092915050565b600060808201905081810360008301526153678187614d72565b9050818103602083015261537b81866152d8565b9050818103604083015261538f8185614eb9565b905081810360608301526153a38184614c1d565b905095945050505050565b6153b781614d51565b82525050565b6000610120820190506153d3600083018c615055565b81810360208301526153e5818b61501c565b90506153f4604083018a615055565b8181036060830152615406818961501c565b905061541560808301886153ae565b61542260a0830187614ffc565b61542f60c0830186615055565b61543c60e0830185614ffc565b61544a610100830184614ffc565b9a9950505050505050505050565b6004811061546957615468614cfb565b5b50565b600081905061547a82615458565b919050565b600061548a8261546c565b9050919050565b61549a8161547f565b82525050565b60006020820190506154b56000830184615491565b92915050565b600060a0820190506154d060008301886153ae565b6154dd6020830187614ffc565b81810360408301526154ef8186614eb9565b905081810360608301526155038185614c1d565b90508181036080830152615517818461519c565b90509695505050505050565b600081519050919050565b600082825260208201905092915050565b6000819050602082019050919050565b6000610120830160008301516155686000860182614c0e565b50602083015184820360208601526155808282614bcb565b91505060408301516155956040860182614c0e565b50606083015184820360608601526155ad8282614bcb565b91505060808301516155c26080860182614d63565b5060a08301516155d560a0860182614b6d565b5060c08301516155e860c0860182614c0e565b5060e08301516155fb60e0860182614b6d565b50610100830151615610610100860182614b6d565b508091505092915050565b6000615627838361554f565b905092915050565b6000602082019050919050565b600061564782615523565b615651818561552e565b9350836020820285016156638561553f565b8060005b8581101561569f5784840389528151615680858261561b565b945061568b8361562f565b925060208a01995050600181019050615667565b50829750879550505050505092915050565b600060208201905081810360008301526156cb818461563c565b905092915050565b60006020820190506156e86000830184614ffc565b92915050565b7f4e487b7100000000000000000000000000000000000000000000000000000000600052602260045260246000fd5b6000600282049050600182168061573557607f821691505b60208210811415615749576157486156ee565b5b50919050565b7f54686973206164647265737320697320616c726561647920726567697374657260008201527f65642061732072657461696c6572000000000000000000000000000000000000602082015250565b60006157ab602e8361500b565b91506157b68261574f565b604082019050919050565b600060208201905081810360008301526157da8161579e565b9050919050565b7f4f6e6c792072657461696c6572732063616e20706572666f726d20746869732060008201527f616374696f6e0000000000000000000000000000000000000000000000000000602082015250565b600061583d60268361500b565b9150615848826157e1565b604082019050919050565b6000602082019050818103600083015261586c81615830565b9050919050565b7f50726f6475637420646f6573206e6f7420657869737400000000000000000000600082015250565b60006158a960168361500b565b91506158b482615873565b602082019050919050565b600060208201905081810360008301526158d88161589c565b9050919050565b7f4e487b7100000000000000000000000000000000000000000000000000000000600052603260045260246000fd5b7f50726f6475637420686173206265656e2072656c6561736564206f7220736f6c60008201527f6400000000000000000000000000000000000000000000000000000000000000602082015250565b600061596a60218361500b565b91506159758261590e565b604082019050919050565b600060208201905081810360008301526159998161595d565b9050919050565b7f4e487b7100000000000000000000000000000000000000000000000000000000600052601160045260246000fd5b60006159da82614c04565b91507fffffffffffffffffffffffffffffffffffffffffffffffffffffffffffffffff821415615a0d57615a0c6159a0565b5b600182019050919050565b6000615a2382614c04565b9150615a2e83614c04565b925082821015615a4157615a406159a0565b5b828203905092915050565b6000615a5782614c04565b9150615a6283614c04565b9250827fffffffffffffffffffffffffffffffffffffffffffffffffffffffffffffffff03821115615a9757615a966159a0565b5b828201905092915050565b6000608082019050615ab76000830187615055565b615ac46020830186614ffc565b615ad16040830185614ffc565b615ade6060830184615055565b95945050505050565b7f4f6e6c79206d616e756661637475726572732063616e20706572666f726d207460008201527f68697320616374696f6e00000000000000000000000000000000000000000000602082015250565b6000615b43602a8361500b565b9150615b4e82615ae7565b604082019050919050565b60006020820190508181036000830152615b7281615b36565b9050919050565b7f4f6e6c79206d616e756661637475726572732063616e206164642070726f647560008201527f6374000000000000000000000000000000000000000000000000000000000000602082015250565b6000615bd560228361500b565b9150615be082615b79565b604082019050919050565b60006020820190508181036000830152615c0481615bc8565b9050919050565b6000606082019050615c206000830186615055565b615c2d6020830185614ffc565b615c3a6040830184615055565b949350505050565b7f4f6e6c7920637573746f6d6572732063616e20706572666f726d20746869732060008201527f616374696f6e0000000000000000000000000000000000000000000000000000602082015250565b6000615c9e60268361500b565b9150615ca982615c42565b604082019050919050565b60006020820190508181036000830152615ccd81615c91565b9050919050565b7f50726f6475637420686173206e6f74206265656e2072656c6561736564206f7260008201527f20686173206265656e20616c726561647920736f6c6400000000000000000000602082015250565b6000615d3060368361500b565b9150615d3b82615cd4565b604082019050919050565b60006020820190508181036000830152615d5f81615d23565b9050919050565b7f54686973206164647265737320697320616c726561647920726567697374657260008201527f6564206173206d616e7566616374757265720000000000000000000000000000602082015250565b6000615dc260328361500b565b9150615dcd82615d66565b604082019050919050565b60006020820190508181036000830152615df181615db5565b9050919050565b7f4e487b7100000000000000000000000000000000000000000000000000000000600052603160045260246000fdfea2646970667358221220ba17e2bfde64c79adbf0161c450ab9835149b68f103362533c05972cdb2d8aa064736f6c634300080b0033",
  "immutableReferences": {},
  "source": "// SPDX-License-Identifier: MIT\r\npragma solidity >=0.4.22 <0.9.0;\r\n\r\ncontract Vahan {\r\n    enum Role {\r\n        manufacturer,\r\n        retailer,\r\n        customer,\r\n        not_registered\r\n    }\r\n\r\n    enum Stage {\r\n        manufactured,\r\n        released,\r\n        sold\r\n    }\r\n\r\n    struct Product {\r\n        uint256 id;\r\n        string name;\r\n        uint256 price;\r\n        string ipfs_hash;\r\n        Stage stage;\r\n        address manufacturer;\r\n        uint256 total_retailers;\r\n        address customer;\r\n        address currentOwner;\r\n    }\r\n\r\n    struct Manufacturer {\r\n        address id;\r\n        string name;\r\n        uint256 total_products;\r\n    }\r\n\r\n    struct Retailer {\r\n        address id;\r\n        string name;\r\n        uint256 total_products;\r\n    }\r\n\r\n    struct Customer {\r\n        address id;\r\n        string name;\r\n        uint256 total_orders;\r\n    }\r\n\r\n    uint256 public total_products;\r\n    Product[] public products;\r\n    mapping(address => Manufacturer) public manufacturers;\r\n    mapping(address => Retailer) public retailers;\r\n    mapping(address => Customer) public customers;\r\n    mapping(uint256 => address[]) public Product_Retailers;\r\n\r\n    mapping(address => uint256[]) public manufacturer_inventory;\r\n    mapping(address => uint256[]) public retailer_inventory;\r\n    mapping(address => uint256[]) public customer_orders;\r\n\r\n    address[] address_array;\r\n\r\n    event DeVahan_deployed(string _message);\r\n    event Product_Added(\r\n        uint256 _productId,\r\n        address _manufacturerAddress,\r\n        uint256 _time\r\n    );\r\n    event Product_Released(\r\n        uint256 _productId,\r\n        address _manufacturerAddress,\r\n        address _retailerAddress,\r\n        uint256 _time\r\n    );\r\n    event Product_Sold(\r\n        uint256 _productId,\r\n        address _retailerAddress,\r\n        address _customerAddress,\r\n        uint256 _time\r\n    );\r\n\r\n    constructor() {\r\n        total_products = 0;\r\n        emit DeVahan_deployed(\"Vahan has been deployed\");\r\n    }\r\n\r\n    modifier isManufacturer(address _manufacturerAddress) {\r\n        require(\r\n            manufacturers[_manufacturerAddress].id != address(0x0),\r\n            \"Only manufacturers can perform this action\"\r\n        );\r\n        _;\r\n    }\r\n\r\n    modifier isRetailer(address _retailerAddress) {\r\n        require(\r\n            retailers[_retailerAddress].id != address(0x0),\r\n            \"Only retailers can perform this action\"\r\n        );\r\n        _;\r\n    }\r\n\r\n    modifier isCustomer(address _customerAddress) {\r\n        require(\r\n            customers[_customerAddress].id != address(0x0),\r\n            \"Only customers can perform this action\"\r\n        );\r\n        _;\r\n    }\r\n\r\n    function removeElement(uint256 index, uint256[] storage array)\r\n        internal\r\n        returns (uint256[] storage)\r\n    {\r\n        for (uint256 i = index; i < array.length - 1; i++) {\r\n            array[i] = array[i + 1];\r\n        }\r\n        array.pop();\r\n        return array;\r\n    }\r\n\r\n    function getProducts() public view returns (Product[] memory) {\r\n        return products;\r\n    }\r\n\r\n    function addManufacturer(string memory _name)\r\n        public\r\n        payable\r\n        returns (Manufacturer memory)\r\n    {\r\n        require(\r\n            bytes(manufacturers[msg.sender].name).length == 0,\r\n            \"This address is already registered as manufacturer\"\r\n        );\r\n\r\n        Manufacturer memory _manufacturer;\r\n        _manufacturer.id = msg.sender;\r\n        _manufacturer.name = _name;\r\n        _manufacturer.total_products = 0;\r\n\r\n        manufacturers[msg.sender] = _manufacturer;\r\n\r\n        return _manufacturer;\r\n    }\r\n\r\n    function addRetailer(string memory _name)\r\n        public\r\n        payable\r\n        returns (Retailer memory)\r\n    {\r\n        require(\r\n            bytes(retailers[msg.sender].name).length == 0,\r\n            \"This address is already registered as retailer\"\r\n        );\r\n\r\n        Retailer memory _retailer;\r\n        _retailer.id = msg.sender;\r\n        _retailer.name = _name;\r\n        _retailer.total_products = 0;\r\n\r\n        retailers[msg.sender] = _retailer;\r\n\r\n        return _retailer;\r\n    }\r\n\r\n    function addCustomer(string memory _name)\r\n        public\r\n        payable\r\n        returns (Customer memory)\r\n    {\r\n        require(\r\n            bytes(customers[msg.sender].name).length == 0,\r\n            \"This address is already registered as retailer\"\r\n        );\r\n\r\n        Customer memory _customer;\r\n        _customer.id = msg.sender;\r\n        _customer.name = _name;\r\n\r\n        customers[msg.sender] = _customer;\r\n\r\n        return _customer;\r\n    }\r\n\r\n    function addProduct(\r\n        string memory _name,\r\n        uint256 _price,\r\n        string memory _ipfs_hash,\r\n        uint256 _time\r\n    ) public payable isManufacturer(msg.sender) returns (Product memory) {\r\n        require(\r\n            manufacturers[msg.sender].id != address(0),\r\n            \"Only manufacturers can add product\"\r\n        );\r\n\r\n        //get the manufacturer\r\n        Manufacturer memory _manufacturer = manufacturers[msg.sender];\r\n\r\n        //create the product\r\n        Product memory _product;\r\n        _product.id = total_products;\r\n        _product.name = _name;\r\n        _product.price = _price;\r\n        _product.ipfs_hash = _ipfs_hash;\r\n        _product.manufacturer = _manufacturer.id;\r\n        _product.stage = Stage.manufactured;\r\n        _product.total_retailers = 0;\r\n        _product.currentOwner = msg.sender;\r\n\r\n        //add the product to records\r\n        products.push(_product);\r\n        total_products += 1;\r\n\r\n        //add the product to the manufacturer inventory records\r\n        manufacturer_inventory[msg.sender].push(_product.id);\r\n        _manufacturer.total_products += 1;\r\n        manufacturers[msg.sender] = _manufacturer;\r\n\r\n        //Add into proper mappings\r\n        Product_Retailers[_product.id] = address_array;\r\n\r\n        emit Product_Added(_product.id, msg.sender, _time);\r\n\r\n        return _product;\r\n    }\r\n\r\n    function releaseProduct(uint256 _productId, uint256 _time)\r\n        public\r\n        payable\r\n        isRetailer(msg.sender)\r\n        returns (Product memory)\r\n    {\r\n        require(_productId < total_products, \"Product does not exist\");\r\n\r\n        //Get the product\r\n        Product memory _product = products[_productId];\r\n\r\n        //check if the product has already been released or manufactured\r\n        require(\r\n            _product.stage == Stage.manufactured,\r\n            \"Product has been released or sold\"\r\n        );\r\n\r\n        //Shift ownership from manufacturer to retailer\r\n        Product_Retailers[_productId].push(msg.sender);\r\n        _product.total_retailers++;\r\n        _product.stage = Stage.released;\r\n        _product.currentOwner = msg.sender;\r\n\r\n        //Remove the element from the inventory of manufacturer and update count\r\n        Manufacturer memory _manufacturer = manufacturers[\r\n            _product.manufacturer\r\n        ];\r\n        for (uint256 i = 0; i < _manufacturer.total_products; i++) {\r\n            if (\r\n                manufacturer_inventory[_product.manufacturer][i] == _productId\r\n            ) {\r\n                manufacturer_inventory[_product.manufacturer] = removeElement(\r\n                    i,\r\n                    manufacturer_inventory[_product.manufacturer]\r\n                );\r\n                // delete manufacturer_inventory[_product.manufacturer][i];\r\n                break;\r\n            }\r\n        }\r\n        _manufacturer.total_products -= 1;\r\n        manufacturers[_product.manufacturer] = _manufacturer;\r\n\r\n        //Add the product to retailer's inventory and update count\r\n        retailer_inventory[msg.sender].push(_product.id);\r\n        Retailer memory _retailer = retailers[msg.sender];\r\n        _retailer.total_products += 1;\r\n        retailers[msg.sender] = _retailer;\r\n\r\n        //save the updated product details\r\n        products[_productId] = _product;\r\n\r\n        emit Product_Released(\r\n            _productId,\r\n            _product.manufacturer,\r\n            msg.sender,\r\n            _time\r\n        );\r\n\r\n        return _product;\r\n    }\r\n\r\n    function buyProduct(uint256 _productId, uint256 _time)\r\n        public\r\n        payable\r\n        isCustomer(msg.sender)\r\n        returns (Product memory)\r\n    {\r\n        require(_productId < total_products, \"Product does not exist\");\r\n\r\n        //Get the product\r\n        Product memory _product = products[_productId];\r\n\r\n        //check if the product has already been released or manufactured\r\n        require(\r\n            _product.stage == Stage.released,\r\n            \"Product has not been released or has been already sold\"\r\n        );\r\n\r\n        //Get the details of the retailer who is selling\r\n        address _retailerId = Product_Retailers[_product.id][\r\n            _product.total_retailers - 1\r\n        ];\r\n        Retailer memory _retailer = retailers[_retailerId];\r\n\r\n        //Get the details of the customer\r\n        Customer memory _customer = customers[msg.sender];\r\n\r\n        //Shift ownership from retailer to customer\r\n        _product.stage = Stage.sold;\r\n        _product.customer = _customer.id;\r\n        _product.currentOwner = msg.sender;\r\n\r\n        //Remove the element from the inventory of retailer and update count\r\n        address _current_retailer_address = Product_Retailers[_productId][\r\n            Product_Retailers[_productId].length - 1\r\n        ];\r\n        Retailer memory _current_retailer = retailers[\r\n            _current_retailer_address\r\n        ];\r\n        for (uint256 i = 0; i < _current_retailer.total_products; i++) {\r\n            if (\r\n                retailer_inventory[_current_retailer_address][i] == _productId\r\n            ) {\r\n                retailer_inventory[_current_retailer_address] = removeElement(\r\n                    i,\r\n                    retailer_inventory[_current_retailer_address]\r\n                );\r\n                // delete retailer_inventory[_current_retailer_address][i];\r\n                break;\r\n            }\r\n        }\r\n        _current_retailer.total_products -= 1;\r\n        retailers[_current_retailer_address] = _current_retailer;\r\n\r\n        //Add the product to customer's orders and update count\r\n        customer_orders[msg.sender].push(_product.id);\r\n        _customer.total_orders += 1;\r\n        customers[msg.sender] = _customer;\r\n\r\n        //save the updated product details\r\n        products[_productId] = _product;\r\n\r\n        emit Product_Sold(_productId, _retailer.id, msg.sender, _time);\r\n\r\n        return _product;\r\n    }\r\n\r\n    function getManufacturerDetails(address _manufacturerId)\r\n        public\r\n        view\r\n        returns (Manufacturer memory)\r\n    {\r\n        Manufacturer memory _manufacturer = manufacturers[_manufacturerId];\r\n        return _manufacturer;\r\n    }\r\n\r\n    function getManufacturerInventory(address _manufacturerId)\r\n        public\r\n        view\r\n        returns (uint256[] memory)\r\n    {\r\n        uint256[] memory _product_ids = manufacturer_inventory[_manufacturerId];\r\n        return _product_ids;\r\n    }\r\n\r\n    function getRetailerDetails(address _retailerId)\r\n        public\r\n        view\r\n        returns (Retailer memory)\r\n    {\r\n        Retailer memory _retailer = retailers[_retailerId];\r\n        return _retailer;\r\n    }\r\n\r\n    function getRetailerInventory(address _retailerId)\r\n        public\r\n        view\r\n        returns (uint256[] memory)\r\n    {\r\n        uint256[] memory _product_ids = retailer_inventory[_retailerId];\r\n        return _product_ids;\r\n    }\r\n\r\n    function getCustomerDetails(address _customerId)\r\n        public\r\n        view\r\n        returns (Customer memory)\r\n    {\r\n        Customer memory _customer = customers[_customerId];\r\n        return _customer;\r\n    }\r\n\r\n    function getCustomerOrders(address _customerId)\r\n        public\r\n        view\r\n        returns (uint256[] memory)\r\n    {\r\n        uint256[] memory _product_ids = customer_orders[_customerId];\r\n        return _product_ids;\r\n    }\r\n\r\n    function getProductDetails(uint256 _productId)\r\n        public\r\n        view\r\n        returns (\r\n            Product memory,\r\n            Retailer[] memory,\r\n            Manufacturer memory,\r\n            Customer memory\r\n        )\r\n    {\r\n        //Get the product\r\n        Product memory _product = products[_productId];\r\n\r\n        //Get all the retailers addresses\r\n        address[] memory _retailer_addresses = Product_Retailers[_productId];\r\n\r\n        //Initialize an empty reailters array\r\n        Retailer[] memory _retailers = new Retailer[](_product.total_retailers);\r\n\r\n        //Get the manufacturer\r\n        Manufacturer memory _manufacturer = getManufacturerDetails(\r\n            _product.manufacturer\r\n        );\r\n\r\n        //Get the customer\r\n        Customer memory _customer = getCustomerDetails(_product.customer);\r\n\r\n        //Push all the retailers in the _retailers array\r\n        for (uint256 i = 0; i < _retailer_addresses.length; i++) {\r\n            _retailers[i] = getRetailerDetails(_retailer_addresses[i]);\r\n        }\r\n        return (_product, _retailers, _manufacturer, _customer);\r\n    }\r\n\r\n    function getCurrentStatus(uint256 _productId)\r\n        public\r\n        view\r\n        returns (\r\n            Stage,\r\n            address,\r\n            Manufacturer memory,\r\n            Customer memory,\r\n            Retailer memory\r\n        )\r\n    {\r\n        //Initilize an empty address for owner\r\n        address _owner_address;\r\n\r\n        //Get product details\r\n        Product memory _product = products[_productId];\r\n\r\n        //Get product stage\r\n        Stage _stage = _product.stage;\r\n\r\n        //Instantiate each user\r\n        Manufacturer memory _manufacturer;\r\n        Customer memory _customer;\r\n        Retailer memory _retailer;\r\n\r\n        //Check for each stage\r\n        if (_stage == Stage.manufactured) {\r\n            _owner_address = _product.manufacturer;\r\n            _manufacturer = getManufacturerDetails(_owner_address);\r\n        } else if (_stage == Stage.sold) {\r\n            _owner_address = _product.customer;\r\n            _customer = getCustomerDetails(_owner_address);\r\n        } else {\r\n            _owner_address = Product_Retailers[_productId][\r\n                _product.total_retailers - 1\r\n            ];\r\n            _retailer = getRetailerDetails(_owner_address);\r\n        }\r\n        return (_stage, _owner_address, _manufacturer, _customer, _retailer);\r\n    }\r\n\r\n    function getUserType(address _user) public view returns (Role) {\r\n        if (manufacturers[_user].id != address(0x0)) return Role.manufacturer;\r\n\r\n        if (retailers[_user].id != address(0x0)) return Role.retailer;\r\n\r\n        if (customers[_user].id != address(0x0)) return Role.customer;\r\n\r\n        return Role.not_registered;\r\n    }\r\n}\r\n",
  "sourcePath": "C:\\Vahan\\contracts\\contracts\\Vahan.sol",
  "compiler": {
    "name": "solc",
    "version": "0.8.11+commit.d7f03943.Emscripten.clang"
  },
  "schemaVersion": "3.4.8",
  "updatedAt": "2022-08-18T09:13:17.847Z",
  "networkType": "ethereum",
  "devdoc": {
    "kind": "dev",
    "methods": {},
    "version": 1
  },
  "userdoc": {
    "kind": "user",
    "methods": {},
    "version": 1
  }
}